:020000040800F2
:100000000028002035160008ED0E0008F30E000849
:10001000F90E0008FF0E0008050F000800000000A0
:100020000000000000000000000000000B0F0008AE
:10003000170F000800000000230F00082F0F000812
:100040007D1600087D1600087D1600087D16000844
:100050007D1600087D1600087D1600087D16000834
:100060007D1600087D1600087D1600087D16000824
:100070007D1600087D1600087D1600087D16000814
:100080007D1600087D1600087D1600087D16000804
:100090007D1600087D1600087D1600087D160008F4
:1000A0007D1600087D1600087D1600087D160008E4
:1000B0003D0F00087D160008000000007D160008B6
:1000C0007D16000800000000000000007D160008FA
:1000D000000000007D1600087D16000800000000EA
:1000E0007D1600087D1600087D160008000000003F
:1000F0000000000000000000000000000000000000
:0C01000000000000000000005FF808F1A3
:10010C0010B5054C237833B9044B13B10448AFF345
:10011C0000800123237010BD3C0000200000000073
:10012C00A42C000808B5034B1BB103490348AFF3DB
:10013C00008008BD0000000040000020A42C000836
:10014C0080B582B000AF786039603B68002B03D07B
:10015C003B68012B0FD01FE07B68012B05D10022DF
:10016C0020210F4801F087FD16E0012220210C48C8
:10017C0001F081FD10E07B68012B06D100224FF4C9
:10018C008071074801F077FD05E001224FF4807182
:10019C00034801F070FD00BF00BF0837BD4680BDAD
:1001AC000008014080B582B000AF786039603B68D0
:1001BC00002B03D03B68012B0FD01DE07B68012B7B
:1001CC0005D1002208210E4801F055FD14E0012252
:1001DC0008210B4801F04FFD0EE07B68012B05D187
:1001EC0000224021064801F046FD04E00122402196
:1001FC00034801F040FD00BF00BF0837BD4680BD7D
:10020C000008014080B582B000AF786039603B686F
:10021C00002B03D03B68012B0FD01DE07B68012B1A
:10022C0005D1002210210E4801F025FD14E0012219
:10023C0010210B4801F01FFD0EE07B68012B05D14E
:10024C0000228021064801F016FD04E001228021E5
:10025C00034801F010FD00BF00BF0837BD4680BD4C
:10026C000008014080B58EB000AF78607B68484ACA
:10027C0082FB03129210DB17D31A7B637A68444B10
:10028C0083FB02139910D317C91A0B469B000B441E
:10029C005B00D31A3B6307F11C0300221A605A60FF
:1002AC009A60DA6007F10C0300221A605A609A60B7
:1002BC00DA600323FB6228E07B6B002B03F0010365
:1002CC00B8BF5B421A46FB6A9B0007F138010B442E
:1002DC0043F81C2C7B6BDA0F13445B107B633B6B7A
:1002EC00002B03F00103B8BF5B421A46FB6A9B006C
:1002FC0007F138010B4443F82C2C3B6BDA0F1344F9
:10030C005B103B63FB6A013BFB62FB6A002BD3DA9D
:10031C00BB6ADBB21A464FF480511E4801F0ABFCAD
:10032C007B6ADBB21A464FF400511A4801F0A3FC69
:10033C003B6ADBB21A464FF48041164801F09BFC35
:10034C00FB69DBB21A464FF40041124801F093FCF2
:10035C00BB69DBB21A4601210F4801F08CFC7B69AA
:10036C00DBB21A4602210C4801F085FC3B69DBB27A
:10037C001A460421084801F07EFCFB68DBB21A46E1
:10038C000821054801F077FC00BF3837BD4680BD19
:10039C006766666600080140000C014080B58EB0AF
:1003AC0000AF78607B68484A82FB03129210DB171F
:1003BC00D31A7B637A68444B83FB02139910D317CF
:1003CC00C91A0B469B000B445B00D31A3B6307F125
:1003DC001C0300221A605A609A60DA6007F10C0361
:1003EC0000221A605A609A60DA600323FB6228E0EC
:1003FC007B6B002B03F00103B8BF5B421A46FB6A10
:10040C009B0007F138010B4443F81C2C7B6BDA0F73
:10041C0013445B107B633B6B002B03F00103B8BFF1
:10042C005B421A46FB6A9B0007F138010B4443F808
:10043C002C2C3B6BDA0F13445B103B63FB6A013BC8
:10044C00FB62FB6A002BD3DABB6ADBB21A461021C3
:10045C001E4801F010FC7B6ADBB21A4620211B48B7
:10046C0001F009FC3B6ADBB21A464021174801F047
:10047C0002FCFB69DBB21A468021144801F0FBFB3D
:10048C00BB69DBB21A464FF48071104801F0F3FBE4
:10049C007B69DBB21A464FF400710C4801F0EBFBA0
:1004AC003B69DBB21A464FF48061084801F0E3FB6C
:1004BC00FB68DBB21A464FF40061044801F0DBFB29
:1004CC0000BF3837BD4680BD67666666000C0140CC
:1004DC0080B588B000AF786007F10C0300221A6079
:1004EC005A609A60DA600323FB6115E07B68002B8D
:1004FC0003F00103B8BF5B421A46FB699B0007F18E
:10050C0020010B4443F8142C7B68DA0F13445B1066
:10051C007B60FB69013BFB61FB69002BE6DABB6985
:10052C00DBB21A464FF480510F4801F0A4FB7B69F3
:10053C00DBB21A464FF400510B4801F09CFB3B69AF
:10054C00DBB21A464FF48041074801F094FBFB687C
:10055C00DBB21A464FF40041034801F08CFB00BF9C
:10056C002037BD4680BD00BF000C014090B583B064
:10057C0000AF00237B6027E07B68DBB2184600F0FD
:10058C0035FB0346012B0ED1AC4A7B68134419781A
:10059C00AB4A7B6813440A461A70A84A7B6813441A
:1005AC0000221A700DE0A54A7B6813441978A44AFE
:1005BC007B6813440A461A70A04A7B6813440122D4
:1005CC001A707B6801337B607B68022BD4DD9D4BFA
:1005DC001B78032B00F2AA8201A252F823F000BF71
:1005EC00FD050008BF06000861080008E9090008BD
:1005FC000120FFF76DFF00233B601AE0386800F024
:10060C00D3FD034639681846FFF7CCFD386800F077
:10061C00DBFD034639681846FFF7F4FD386800F037
:10062C00E3FD034639681846FFF78AFD3B68013342
:10063C003B603B68012BE1DD002000F0E5FD03464B
:10064C001846FFF70FFE012000F0DEFD03461846AA
:10065C00FFF7A4FE794B1B78002B40F06982784B96
:10066C001B78012B40F0648200F01AFE0346764A98
:10067C00136000F015FE0346744A82FB03129211BC
:10068C00DB17D31A1946002000F0CEFD00F008FE4F
:10069C0003466E4A82FB03129211DB17D31A1946DA
:1006AC00012000F0C1FD674B01221A7000F084FE9E
:1006BC003EE200F069FE00F0A7FE002000F074FDA1
:1006CC00034600211846FFF76DFD012000F06CFD7C
:1006DC00034601211846FFF765FD002000F074FD6C
:1006EC00034600211846FFF78DFD012000F06CFD3C
:1006FC00034601211846FFF785FD002000F074FD2C
:10070C00034600211846FFF71BFD012000F06CFD8D
:10071C00034601211846FFF713FD0220FFF7D8FE10
:10072C00002000F071FD03461846FFF79BFD0120E9
:10073C0000F06AFD03461846FFF730FE3F4B5B782E
:10074C00002B33D13E4B5B78012B2FD100F0B2FD47
:10075C00044600F0A5FD03461C4400F0B5FD03461D
:10076C0023443B4A934221DC00F09AFD034603F5F7
:10077C007A73184600F06AFD00F092FD0346334A86
:10078C0082FB03129211DB17D31A1946002000F0DA
:10079C004BFD00F085FD03462C4A82FB031292119F
:1007AC00DB17D31A1946012000F03EFD234B9B7832
:1007BC00002B0CD1224B9B78012B08D100F048FE6A
:1007CC0000F0EEFD00F08AFD1E4B00221A701B4B50
:1007DC001B78002B40F0AE81194B1B78012B40F09D
:1007EC00A981194B1B68184600F030FD00F06CFD18
:1007FC000346154A1360134B02221A7000F028FEB0
:10080C0000F062FD0346114A82FB03129211DB17C2
:10081C00D31A1946002000F007FD00F055FD0346E1
:10082C000A4A82FB03129211DB17D31A19460120D4
:10083C0000F0FAFC00F0C0FD7CE100BF04000020D9
:10084C0000000020580000205C000020D34D6210F6
:10085C00B782010000F098FD00F0E2FD002000F0EE
:10086C00A3FC034600211846FFF79CFC012000F076
:10087C009BFC034601211846FFF794FC002000F076
:10088C00A3FC034600211846FFF7BCFC012000F036
:10089C009BFC034601211846FFF7B4FC002000F036
:1008AC00A3FC034600211846FFF74AFC012000F088
:1008BC009BFC034601211846FFF742FC0320FFF77F
:1008CC0007FE002000F0A0FC03461846FFF7CAFC08
:1008DC00012000F099FC03461846FFF75FFD9A4B88
:1008EC005B78002B33D1994B5B78012B2FD100F027
:1008FC00E1FC044600F0D4FC03461C4400F0E4FC8C
:10090C0003462344924A934221DC00F0DDFC03466B
:10091C0003F57A73184600F0B5FC00F0D5FC0346DD
:10092C008C4A82FB03129211DB17D31A1946002052
:10093C0000F07AFC00F0C8FC0346864A82FB0312E6
:10094C009211DB17D31A1946012000F06DFC7E4B77
:10095C009B78002B0CD17D4B9B78012B08D100F0A0
:10096C0083FD00F01DFD00F0B9FC7B4B00221A70DA
:10097C00754B1B78002B40F0DF80744B1B78012BE0
:10098C0040F0DA80754B1B68184600F07BFC00F0D9
:10099C0091FC0346714A13606F4B03221A7000F0EE
:1009AC0089FC03466B4A82FB03129211DB17D31AA4
:1009BC001946002000F038FC00F07CFC0346654A28
:1009CC0082FB03129211DB17D31A1946012000F097
:1009DC002BFC00F049FD00F0EFFCADE000F0D4FC86
:1009EC0000F02AFD002000F0DFFB03460021184632
:1009FC00FFF7D8FB012000F0D7FB03460121184676
:100A0C00FFF7D0FB002000F0DFFB03460021184667
:100A1C00FFF7F8FB012000F0D7FB03460121184635
:100A2C00FFF7F0FB002000F0DFFB03460021184627
:100A3C00FFF786FB012000F0D7FB03460121184687
:100A4C00FFF77EFB0420FFF743FD002000F0DCFBEA
:100A5C0003461846FFF706FC012000F0D5FB0346C1
:100A6C001846FFF79BFC384B5B78002B33D1374B88
:100A7C005B78012B2FD100F01DFC044600F010FC1C
:100A8C0003461C4400F020FC03462344304A9342A6
:100A9C0021DC00F00FFC034603F57A73184600F0D6
:100AAC00E3FB00F007FC03462A4A82FB0312921177
:100ABC00DB17D31A1946002000F0B6FB00F0FAFB46
:100ACC000346244A82FB03129211DB17D31A1946F0
:100ADC00012000F0A9FB1C4B9B78002B0CD11B4B6D
:100AEC009B78012B08D100F0CBFC00F059FC00F0F6
:100AFC00F5FB194B00221A70134B1B78002B1DD1E0
:100B0C00124B1B78012B19D1144B1B68184600F0A3
:100B1C00ABFB124B00221A600F4B00221A7000F034
:100B2C00AFFC00F0DBFB00F03BFC07E000BF06E095
:100B3C0000BF04E000BF02E000BF00E000BF00BF48
:100B4C000C37BD4690BD00BF040000200000002003
:100B5C00B7820100D34D6210580000205C000020C9
:100B6C0080B582B000AF00237B602DE01A4A7B6811
:100B7C0013441978194A7B6813440A461A70184AA8
:100B8C007B6832F813301946164801F05DF80346BD
:100B9C001946114A7B6813440A461A700E4A7B6840
:100BAC0013441A780D497B680B441B789A4208D180
:100BBC00094A7B68134419780B4A7B6813440A462C
:100BCC001A707B6801337B607B68022BCEDD00BF23
:100BDC0000BF0837BD4680BD6400002068000020BF
:100BEC0008000020000801406000002080B483B0A1
:100BFC0000AF0346FB71FB79022B01D9002302E005
:100C0C00FB79034AD35C18460C37BD4680BC704751
:100C1C006000002080B500AF00F02CFD00F00CF857
:100C2C0000F092F800F044F8024801F075FCFFF770
:100C3C009DFCFCE7A000002080B590B000AF07F150
:100C4C00180328220021184602F01EF83B1D002232
:100C5C001A605A609A60DA601A610223BB61012340
:100C6C00BB621023FB6200237B6307F11803184659
:100C7C0001F01AF80346002B01D000F0D5F80F2331
:100C8C007B600023BB600023FB6000233B610023DF
:100C9C007B613B1D0021184601F086FA0346002BB0
:100CAC0001D000F0C1F800BF4037BD4680BD000048
:100CBC0080B586B000AF07F1080300221A605A60B5
:100CCC009A60DA603B4600221A605A601D4B4FF066
:100CDC0080421A601B4B41F63F725A60194B00223E
:100CEC009A60184B0922DA60164B00221A61154BD8
:100CFC0000229A61134801F0BFFB0346002B01D080
:100D0C0000F092F84FF48053BB6007F108031946CA
:100D1C000C4801F055FD0346002B01D000F084F87F
:100D2C0000233B6000237B603B461946054801F0DD
:100D3C001DFF0346002B01D000F076F800BF1837DA
:100D4C00BD4680BDA000002080B588B000AF07F183
:100D5C00100300221A605A609A60DA602F4B9B696C
:100D6C002E4A43F0200393612C4B9B6903F0200324
:100D7C00FB60FB68294B9B69284A43F00403936191
:100D8C00264B9B6903F00403BB60BB68234B9B6938
:100D9C00224A43F008039361204B9B6903F008033C
:100DAC007B607B6800224FF2FE111D4800F063FF50
:100DBC0000224FF6FF711B4800F05DFF4FF2FE134F
:100DCC003B6101237B610023BB610223FB6107F1C3
:100DDC0010031946124800F0BDFD4FF6FF733B613E
:100DEC0001237B610023BB610223FB6107F110032C
:100DFC0019460C4800F0AEFD4FF460633B610023D4
:100E0C007B610023BB6107F110031946044800F015
:100E1C00A1FD00BF2037BD4680BD00BF00100240C1
:100E2C0000080140000C014080B400AF72B600BF56
:100E3C00FEE7000080B485B000AF154B9B69144AE7
:100E4C0043F001039361124B9B6903F00103BB60F8
:100E5C00BB680F4BDB690E4A43F08053D3610C4BDC
:100E6C00DB6903F080537B607B680A4B5B68FB603B
:100E7C00FB6823F0E063FB60FB6843F08063FB607E
:100E8C00044AFB68536000BF1437BD4680BC7047F2
:100E9C00001002400000014080B584B000AF7860C3
:100EAC007B681B68B3F1804F13D10C4BDB690B4A89
:100EBC0043F00103D361094BDB6903F00103FB60D1
:100ECC00FB68002200211C2000F00DFD1C2000F00E
:100EDC0026FD00BF1037BD4680BD00BF001002408C
:100EEC0080B400AFFEE780B400AFFEE780B400AF83
:100EFC00FEE780B400AFFEE780B400AFFEE780B43D
:100F0C0000AF00BFBD4680BC704780B400AF00BFCF
:100F1C00BD4680BC704780B400AF00BFBD4680BCEE
:100F2C00704780B500AF00F0EBFB00BF80BD000048
:100F3C0080B500AF024801F03BFB00BF80BD00BF95
:100F4C00A000002080B400AF00BFBD4680BC70473D
:100F5C0080B400AF0A231846BD4680BC7047000021
:100F6C0090B583B000AF00237B6000E1844A7B68BE
:100F7C0052F82330002B4ADC824A7B6852F823302B
:100F8C00012B12D1804B1C68FFF7E2FF034694FB48
:100F9C00F3F27B497B6841F82320794A7B6852F84D
:100FAC0023207A497B6841F82320794A7B6852F8E0
:100FBC002330012B12D1774B1C68FFF7C9FF034676
:100FCC0094FBF3F26E497B6841F823206C4A7B68F2
:100FDC0052F823206D497B6841F823206E4A7B68C8
:100FEC0052F82330012B12D16C4B1C68FFF7B0FF69
:100FFC00034694FBF3F262497B6841F82320604A74
:10100C007B6852F8232061497B6841F823205F4AB2
:10101C007B6852F82320624B83FB02135911D317C0
:10102C00CB1A642101FB03F3D31A002B21D1574AAD
:10103C007B6852F823305A4A82FB03125211DB1799
:10104C00D21A58497B6841F82320564A7B6852F8DB
:10105C0023305A1E53497B6841F82320514A7B6840
:10106C0052F82330002B04DA4E4A7B68002142F8F8
:10107C002310464A7B6852F82330002B6BDA414A26
:10108C007B6852F82330012B1DD13E4A7B6800212E
:10109C0042F82310404A7B68012142F823103F4B51
:1010AC001C68FFF755FF034694FBF3F234497B6849
:1010BC0041F82320324A7B6852F8232033497B685D
:1010CC0041F8232050E0344A7B6852F82330012B3E
:1010DC001DD1314A7B68002142F823102C4A7B68D1
:1010EC00012142F823102B4B1C68FFF731FF0346FC
:1010FC0094FBF3F222497B6841F82320204A7B6859
:10110C0052F8232021497B6841F823202CE0204A07
:10111C007B6852F82330012B26D11D4A7B680021B5
:10112C0042F82310174A7B68012142F82310164B12
:10113C001C68FFF70DFF034694FBF3F210497B6824
:10114C0041F823200E4A7B6852F823200F497B6814
:10115C0041F8232008E00D4A7B6852F823305A1ED0
:10116C000A497B6841F823207B6801337B607B68EC
:10117C00012B7FF7FBAE00BF00BF0C37BD4690BD07
:10118C006C000020140000202400002074000020BB
:10119C007C0000202C0000201C00002028000020D7
:1011AC001F85EB518400002080B483B000AF7860C1
:1011BC00044A7B6852F8233018460C37BD4680BC75
:1011CC00704700BF1400002080B483B000AF78607B
:1011DC00044A7B6852F8233018460C37BD4680BC55
:1011EC00704700BF1C00002080B483B000AF786053
:1011FC00044A7B6852F8233018460C37BD4680BC35
:10120C00704700BF7C00002080B483B000AF7860D2
:10121C00044A7B6852F8233018460C37BD4680BC14
:10122C00704700BF8400002080B483B000AF7860AA
:10123C00396005497B683A6841F8232000BF0C37B8
:10124C00BD4680BC704700BF8400002080B483B0D2
:10125C0000AF7860034A7B68136000BF0C37BD4653
:10126C0080BC70472400002080B483B000AF78604D
:10127C00034A7B68136000BF0C37BD4680BC7047C7
:10128C002800002080B483B000AF7860034A7B68EC
:10129C00136000BF0C37BD4680BC70472C0000208B
:1012AC0080B400AF024B1B681846BD4680BC70472B
:1012BC002400002080B400AF024B1B681846BD46CA
:1012CC0080BC70472800002080B400AF024B1B6824
:1012DC001846BD4680BC70472C00002098B500AF66
:1012EC00204B1C68FFF734FE034694FBF3F31E4AB5
:1012FC0013601E4B1C68FFF72BFE034694FBF3F3A5
:10130C00194A5360184B1B68194A1360164B5B68DB
:10131C00174A5360164B1B68164A82FB0312521174
:10132C00DB17D31A144A1360114B5B68114A82FB0A
:10133C0003125211DB17D31A0F4A53600F4B0122C1
:10134C001A600E4B00225A600D4B00221A600C4B97
:10135C0001225A600B4B00221A600A4B00225A6081
:10136C0000BF98BD240000206C0000202800002045
:10137C00740000201F85EB51840000201400002015
:10138C001C0000207C00002080B400AF034B002226
:10139C001A6000BFBD4680BC704700BF3000002003
:1013AC0080B400AF034B01221A6000BFBD4680BC65
:1013BC00704700BF3000002080B483B000AF002322
:1013CC007B6011E00D4A7B68002142F823100C4A27
:1013DC007B68002142F823100A4A7B68002142F8FE
:1013EC0023107B6801337B607B68012BEADD00BF37
:1013FC0000BF0C37BD4680BC704700BF14000020F6
:10140C001C0000207C00002080B400AF034B0122A4
:10141C001A6000BFBD4680BC704700BF940000201E
:10142C0080B400AF034B01221A6000BFBD4680BCE4
:10143C00704700BF9C00002080B400AF034B01221A
:10144C001A6000BFBD4680BC704700BF98000020EA
:10145C0080B400AF034B00221A6000BFBD4680BCB5
:10146C00704700BF9400002080B400AF034B0022F3
:10147C001A6000BFBD4680BC704700BF9C000020B6
:10148C0080B400AF034B00221A6000BFBD4680BC85
:10149C00704700BF9800002080B582B000AF786024
:1014AC007B681B68B3F1804F40F0A780FFF758FBB7
:1014BC00544B1B68012B02D1FFF752FD9DE0524BA0
:1014CC001B68002B0CDCFFF743FD03464FF4FA724C
:1014DC0092FBF3F34C4A13604B4B1B684B4A136063
:1014EC004B4B1B68012B2AD1484B1B68002B04DC8F
:1014FC00454B1B68454A136021E0434B1B68DA0FD0
:10150C0013445B101A46414B1B689A4206D1414B5F
:10151C0000221A603F4B00225A600BE03B4B1A68CA
:10152C00394B1B689A4205D13A4B01221A60394B50
:10153C0001225A60354B1B68013B344A1360364B11
:10154C001B68012B2AD1314B1B68002B04DC2E4B62
:10155C001B682E4A136021E02B4B1B68DA0F1344D7
:10156C005B101A46294B1B689A4206D12B4B002262
:10157C001A602A4B00225A600BE0244B1A68224B4B
:10158C001B689A4205D1254B01221A60234B01227C
:10159C005A601E4B1B68013B1C4A1360204B1B6896
:1015AC00002B2AD0194B1B68002B04DC164B1B6834
:1015BC00164A136021E0144B1B68DA0F13445B10BE
:1015CC001A46124B1B689A4206D1164B00221A601F
:1015DC00144B00225A600BE00C4B1A680A4B1B6828
:1015EC009A4205D10F4B01221A600E4B01225A6010
:1015FC00064B1B68013B054A136000BF0837BD460C
:10160C0080BD00BF300000208C0000209000002026
:10161C009400002014000020980000201C000020E2
:10162C009C0000207C0000200C480D490D4A002332
:10163C0002E0D458C4500433C4188C42F9D30A4A7B
:10164C000A4C002301E013600432A242FBD3FFF7E3
:10165C0079FC01F0F5FAFFF7DDFA70470000002085
:10166C003C000020E42C00083C000020EC00002092
:10167C00FEE7000080B500AF084B1B68074A43F03B
:10168C0010031360032000F023F90F2000F008F87A
:10169C00FFF7D0FB0023184680BD00BF002002409E
:1016AC0080B582B000AF7860124B1A68124B1B7871
:1016BC0019464FF47A73B3FBF1F3B2FBF3F318460C
:1016CC0000F03BF90346002B01D001230EE07B68B0
:1016DC000F2B0AD8002279684FF0FF3000F003F985
:1016EC00064A7B681360002300E001231846083784
:1016FC00BD4680BD100000203800002034000020C2
:10170C0080B400AF054B1B781A46054B1B6813447D
:10171C00034A136000BFBD4680BC704738000020F0
:10172C00E800002080B400AF024B1B681846BD4691
:10173C0080BC7047E800002080B485B000AF7860B2
:10174C007B6803F00703FB600C4BDB68BB60BA687B
:10175C004FF6FF031340BB60FB681A02BB681343D0
:10176C0043F0BF6343F40033BB60044ABB68D360EF
:10177C0000BF1437BD4680BC704700BF00ED00E0D1
:10178C0080B400AF044BDB681B0A03F00703184658
:10179C00BD4680BC704700BF00ED00E080B483B054
:1017AC0000AF0346FB7197F90730002B0BDBFB797D
:1017BC0003F01F02064997F907305B09012000FA74
:1017CC0002F241F8232000BF0C37BD4680BC7047A5
:1017DC0000E100E080B483B000AF03463960FB71D8
:1017EC0097F90730002B0ADB3B68DAB20C4997F902
:1017FC0007301201D2B20B4483F800230AE03B6895
:10180C00DAB20849FB7903F00F03043B1201D2B2A0
:10181C000B441A7600BF0C37BD4680BC704700BF26
:10182C0000E100E000ED00E080B489B000AFF860AA
:10183C00B9607A60FB6803F00703FB61FB69C3F1D5
:10184C000703042B28BF0423BB61FB690433062B5D
:10185C0002D9FB69033B00E000237B614FF0FF32B0
:10186C00BB6902FA03F3DA43BB681A407B699A40FE
:10187C004FF0FF317B6901FA03F3D9437B680B40CE
:10188C00134318462437BD4680BC704780B582B0E0
:10189C0000AF78607B68013BB3F1807F01D30123FB
:1018AC000FE00A4A7B68013B53600F214FF0FF3079
:1018BC00FFF790FF054B00229A60044B07221A6039
:1018CC00002318460837BD4680BD00BF10E000E07D
:1018DC0080B582B000AF78607868FFF72DFF00BF4D
:1018EC000837BD4680BD80B586B000AF0346B960F1
:1018FC007A60FB7300237B61FFF742FF78617A68A3
:10190C00B9687869FFF790FF024697F90F301146D6
:10191C001846FFF75FFF00BF1837BD4680BD80B586
:10192C0082B000AF0346FB7197F907301846FFF7FA
:10193C0035FF00BF0837BD4680BD80B582B000AF13
:10194C0078607868FFF7A2FF034618460837BD4653
:10195C0080BD000080B48BB000AF7860396000238C
:10196C007B6200233B6248E101227B6A02FA03F3AB
:10197C00FB613B681B68FA691340BB61BA69FB6980
:10198C009A4240F037813B685B68A34A93425ED031
:10199C00A14A934275D8A14A934258D09F4A934288
:1019AC006FD89F4A934252D09D4A934269D89D4A20
:1019BC0093424CD09B4A934263D89B4A934246D065
:1019CC00994A93425DD8122B2AD8122B59D801A2CE
:1019DC0052F823F05B1A0008351A0008471A000861
:1019EC00891A00088F1A00088F1A00088F1A00082D
:1019FC008F1A00088F1A00088F1A00088F1A000817
:101A0C008F1A00088F1A00088F1A00088F1A000806
:101A1C008F1A00088F1A00083D1A0008511A000886
:101A2C00824A934213D02CE03B68DB683B6229E08E
:101A3C003B68DB6804333B6224E03B68DB680833BB
:101A4C003B621FE03B68DB680C333B621AE03B688F
:101A5C009B68002B02D104233B6213E03B689B681C
:101A6C00012B05D108233B627B68FA691A6109E0F6
:101A7C0008233B627B68FA695A6103E000233B62EE
:101A8C0000E000BFBB69FF2B01D87B6801E07B68DD
:101A9C0004337B61BB69FF2B02D87B6A9B0002E09D
:101AAC007B6A083B9B003B617B691A680F213B6991
:101ABC0001FA03F3DB431A40396A3B6901FA03F379
:101ACC001A437B691A603B685B6803F08053002BF8
:101ADC0000F09080564B9B69554A43F0010393618B
:101AEC00534B9B6903F00103BB60BB68514A7B6A93
:101AFC009B08023352F82330FB607B6A03F003032C
:101B0C009B000F2202FA03F3DB43FA681340FB60DD
:101B1C007B68494A93420DD07B68484A934207D070
:101B2C007B68474A934201D1022304E0032302E07D
:101B3C00012300E000237A6A02F003029200934032
:101B4C00FA681343FB603B497B6A9B080233FA68D3
:101B5C0041F823203B685B6803F48033002B06D0EC
:101B6C00384B1A683749BB6913430B6006E0354B99
:101B7C001A68BB69DB43334913400B603B685B68F5
:101B8C0003F40033002B06D02E4B5A682D49BB6949
:101B9C0013434B6006E02B4B5A68BB69DB43294966
:101BAC0013404B603B685B6803F48013002B06D03A
:101BBC00244B9A682349BB6913438B6006E0214B85
:101BCC009A68BB69DB431F4913408B603B685B68B9
:101BDC0003F40013002B06D01A4BDA681949BB69C1
:101BEC001343CB6006E0174BDA68BB69DB4315493E
:101BFC001340CB607B6A01337B623B681A687B6A5B
:101C0C0022FA03F3002B7FF4AFAE00BF00BF2C37DA
:101C1C00BD4680BC704700BF000032100000311080
:101C2C000000221000002110000012100000111002
:101C3C00001002400000014000080140000C01406F
:101C4C00001001400004014080B485B000AF786002
:101C5C000B467B807B689A687B881340002B02D0F4
:101C6C000123FB7301E00023FB73FB7B1846143745
:101C7C00BD4680BC704780B483B000AF78600B4623
:101C8C007B8013467B707B78002B03D07A887B6833
:101C9C001A6103E07B881A047B681A6100BF0C3759
:101CAC00BD4680BC7047000080B586B000AF786040
:101CBC007B68002B01D101236CE27B681B6803F06D
:101CCC000103002B00F08780924B5B6803F00C0340
:101CDC00042B0CD08F4B5B6803F00C03082B12D138
:101CEC008C4B5B6803F48033B3F5803F0BD1894B8D
:101CFC001B6803F40033002B6CD07B685B68002BF3
:101D0C0068D1012346E27B685B68B3F5803F06D15E
:101D1C00804B1B687F4A43F4803313602EE07B6852
:101D2C005B68002B0CD17B4B1B687A4A23F4803305
:101D3C001360784B1B68774A23F4802313601DE0F3
:101D4C007B685B68B3F5A02F0CD1724B1B68714A92
:101D5C0043F4802313606F4B1B686E4A43F480334B
:101D6C0013600BE06B4B1B686A4A23F480331360DF
:101D7C00684B1B68674A23F4802313607B685B689D
:101D8C00002B13D0FFF7CEFC386108E0FFF7CAFC3C
:101D9C0002463B69D31A642B01D90323FAE15D4B4C
:101DAC001B6803F40033002BF0D014E0FFF7BAFCEF
:101DBC00386108E0FFF7B6FC02463B69D31A642B86
:101DCC0001D90323E6E1534B1B6803F40033002BCA
:101DDC00F0D100E000BF7B681B6803F00203002B0E
:101DEC0063D04C4B5B6803F00C03002B0BD0494BBE
:101DFC005B6803F00C03082B1CD1464B5B6803F4A7
:101E0C008033002B16D1434B1B6803F00203002BCD
:101E1C0005D07B681B69012B01D00123BAE13D4B36
:101E2C001B6823F0F8027B685B69DB0039491343BC
:101E3C000B603AE07B681B69002B20D0364B0122EB
:101E4C001A60FFF76FFC386108E0FFF76BFC024685
:101E5C003B69D31A022B01D903239BE12D4B1B6841
:101E6C0003F00203002BF0D02A4B1B6823F0F8027E
:101E7C007B685B69DB00274913430B6015E0264B3D
:101E8C0000221A60FFF74EFC386108E0FFF74AFCAD
:101E9C0002463B69D31A022B01D903237AE11D4B6D
:101EAC001B6803F00203002BF0D17B681B6803F066
:101EBC000803002B3AD07B689B69002B19D0174B79
:101ECC0001221A60FFF72EFC386108E0FFF72AFCAC
:101EDC0002463B69D31A022B01D903235AE10D4B5D
:101EEC005B6A03F00203002BF0D0012000F0A6FA8D
:101EFC001CE00A4B00221A60FFF714FC38610FE05B
:101F0C00FFF710FC02463B69D31A022B08D90323B6
:101F1C0040E100BF001002400000424280044242F7
:101F2C009E4B5B6A03F00203002BE9D17B681B68B4
:101F3C0003F00403002B00F0A6800023FB75974BE5
:101F4C00DB6903F08053002B0DD1944BDB69934A72
:101F5C0043F08053D361914BDB6903F08053BB603A
:101F6C00BB680123FB758E4B1B6803F48073002B3D
:101F7C0018D18B4B1B688A4A43F480731360FFF7AC
:101F8C00D1FB386108E0FFF7CDFB02463B69D31A61
:101F9C00642B01D90323FDE0814B1B6803F4807390
:101FAC00002BF0D07B68DB68012B06D17B4B1B6AC6
:101FBC007A4A43F0010313622DE07B68DB68002B47
:101FCC000CD1764B1B6A754A23F001031362734BD9
:101FDC001B6A724A23F0040313621CE07B68DB6803
:101FEC00052B0CD16D4B1B6A6C4A43F00403136236
:101FFC006A4B1B6A694A43F0010313620BE0674B9F
:10200C001B6A664A23F001031362644B1B6A634A22
:10201C0023F0040313627B68DB68002B15D0FFF7F9
:10202C0081FB38610AE0FFF77DFB02463B69D31A5E
:10203C0041F28832934201D90323ABE0574B1B6A20
:10204C0003F00203002BEED014E0FFF76BFB3861BA
:10205C000AE0FFF767FB02463B69D31A41F288326C
:10206C00934201D9032395E04C4B1B6A03F0020306
:10207C00002BEED1FB7D012B05D1484BDB69474A88
:10208C0023F08053D3617B68DB69002B00F08180E7
:10209C00424B5B6803F00C03082B61D07B68DB6957
:1020AC00022B46D13F4B00221A60FFF73BFB3861F5
:1020BC0008E0FFF737FB02463B69D31A022B01D924
:1020CC00032367E0354B1B6803F00073002BF0D142
:1020DC007B681B6AB3F5803F08D1304B5B6823F4F7
:1020EC0000327B689B682D4913434B602B4B5B681C
:1020FC0023F474127B68196A7B685B6A0B4327496B
:10210C0013434B60274B01221A60FFF70BFB38611E
:10211C0008E0FFF707FB02463B69D31A022B01D9F3
:10212C00032337E01D4B1B6803F00073002BF0D02A
:10213C002FE01C4B00221A60FFF7F4FA386108E01C
:10214C00FFF7F0FA02463B69D31A022B01D903239D
:10215C0020E0124B1B6803F00073002BF0D118E049
:10216C007B68DB69012B01D1012313E00B4B5B680E
:10217C00FB60FB6803F480327B681B6A9A4206D1D1
:10218C00FB6803F470127B685B6A9A4201D00123EE
:10219C0000E0002318461837BD4680BD00100240F1
:1021AC00007000406000424280B584B000AF78609F
:1021BC0039607B68002B01D10123D0E06A4B1B688E
:1021CC0003F007033A689A4210D9674B1B6823F057
:1021DC00070265493B6813430B60634B1B6803F0B4
:1021EC0007033A689A4201D00123B8E07B681B6868
:1021FC0003F00203002B20D07B681B6803F0040360
:10220C00002B05D0594B5B68584A43F4E06353608C
:10221C007B681B6803F00803002B05D0534B5B68ED
:10222C00524A43F460535360504B5B6823F0F00206
:10223C007B689B684D4913434B607B681B6803F0BC
:10224C000103002B40D07B685B68012B07D1474B07
:10225C001B6803F40033002B15D101237FE07B684E
:10226C005B68022B07D1414B1B6803F00073002BFA
:10227C0009D1012373E03D4B1B6803F00203002BD3
:10228C0001D101236BE0394B5B6823F003027B68BF
:10229C005B68364913434B60FFF744FAF8600AE079
:1022AC00FFF740FA0246FB68D31A41F28832934298
:1022BC0001D9032353E02D4B5B6803F00C027B68C0
:1022CC005B689B009A42EBD1274B1B6803F007031A
:1022DC003A689A4210D2244B1B6823F00702224919
:1022EC003B6813430B60204B1B6803F007033A68F1
:1022FC009A4201D0012332E07B681B6803F004038F
:10230C00002B08D0194B5B6823F4E0627B68DB6818
:10231C00164913434B607B681B6803F00803002BC2
:10232C0009D0124B5B6823F460527B681B69DB009D
:10233C000E4913434B6000F021F802460B4B5B68CF
:10234C001B0903F00F030A49CB5C22FA03F3094A79
:10235C001360094B1B681846FFF7A2F900231846B7
:10236C001037BD4680BD00BF002002400010024067
:10237C00CC2C0008100000203400002090B48AB04F
:10238C0000AF2A4B3C1D0FCB84E80F0040F2012319
:10239C003B800023FB610023BB6100237B62002395
:1023AC007B6100233B62224B5B68FB61FB6903F0A2
:1023BC000C03042B02D0082B03D02DE01D4B3B62E9
:1023CC002DE0FB699B0C03F00F0307F1280213446B
:1023DC0013F8243C7B61FB6903F48033002B13D08E
:1023EC00134B5B685B0C03F0010307F128021344E9
:1023FC0013F8283CBB617B690E4A02FB03F2BB69F4
:10240C00B2FBF3F37B6204E07B690B4A02FB03F340
:10241C007B627B6A3B6202E0064B3B6200BF3B6A1D
:10242C0018462837BD4690BC704700BFBC2C00082E
:10243C000010024000127A0000093D0080B485B003
:10244C0000AF78600A4B1B680A4AA2FB03235B0AA5
:10245C007A6802FB03F3FB6000BFFB685A1EFA604C
:10246C00002BF9D100BF00BF1437BD4680BC7047AC
:10247C0010000020D34D621080B582B000AF7860A0
:10248C007B68002B01D1012341E07B6893F83D3040
:10249C00DBB2002B06D17B68002283F83C207868E5
:1024AC00FEF7FAFC7B68022283F83D207B681A68F1
:1024BC007B6804331946104600F06AFA7B680122E7
:1024CC0083F846207B68012283F83E207B6801223A
:1024DC0083F83F207B68012283F840207B6801222F
:1024EC0083F841207B68012283F842207B6801221B
:1024FC0083F843207B68012283F844207B68012207
:10250C0083F845207B68012283F83D200023184680
:10251C000837BD4680BD000080B485B000AF786040
:10252C007B6893F83D30DBB2012B01D0012335E001
:10253C007B68022283F83D207B681B68DA687B6825
:10254C001B6842F00102DA607B681B68164A9342F2
:10255C0009D07B681B68B3F1804F04D07B681B6883
:10256C00124A934211D17B681B689B6803F00703E6
:10257C00FB60FB68062B10D07B681B681A687B68B5
:10258C001B6842F001021A6007E07B681B681A683E
:10259C007B681B6842F001021A600023184614374E
:1025AC00BD4680BC704700BF002C014000040040B9
:1025BC0080B582B000AF78607B681B681B6903F044
:1025CC000203022B22D17B681B68DB6803F0020339
:1025DC00022B1BD17B681B686FF002021A617B68AF
:1025EC0001221A777B681B689B6903F00303002B9D
:1025FC0003D0786800F0B1F905E0786800F0A4F930
:10260C00786800F0B3F97B6800221A777B681B6846
:10261C001B6903F00403042B22D17B681B68DB6865
:10262C0003F00403042B1BD17B681B686FF00402BE
:10263C001A617B6802221A777B681B689B6903F41A
:10264C004073002B03D0786800F087F905E07868B8
:10265C0000F07AF9786800F089F97B6800221A7723
:10266C007B681B681B6903F00803082B22D17B686D
:10267C001B68DB6803F00803082B1BD17B681B6805
:10268C006FF008021A617B6804221A777B681B685A
:10269C00DB6903F00303002B03D0786800F05DF9CD
:1026AC0005E0786800F050F9786800F05FF97B6815
:1026BC0000221A777B681B681B6903F01003102B30
:1026CC0022D17B681B68DB6803F01003102B1BD135
:1026DC007B681B686FF010021A617B6808221A77FE
:1026EC007B681B68DB6903F44073002B03D07868AC
:1026FC0000F033F905E0786800F026F9786800F00E
:10270C0035F97B6800221A777B681B681B6903F01C
:10271C000103012B0ED17B681B68DB6803F00103FE
:10272C00012B07D17B681B686FF001021A61786876
:10273C00FEF7B2FE7B681B681B6903F08003802BDD
:10274C000ED17B681B68DB6803F08003802B07D1FC
:10275C007B681B686FF080021A61786800F067FA7A
:10276C007B681B681B6903F04003402B0ED17B6810
:10277C001B68DB6803F04003402B07D17B681B68A8
:10278C006FF040021A61786800F0F9F87B681B68FA
:10279C001B6903F02003202B0ED17B681B68DB68C0
:1027AC0003F02003202B07D17B681B686FF02002FD
:1027BC001A61786800F032FA00BF0837BD4680BD58
:1027CC0080B584B000AF786039607B6893F83C309A
:1027DC00012B01D10223B3E07B68012283F83C205A
:1027EC007B68022283F83D207B681B689B68FB603A
:1027FC00FB6823F07703FB60FB6823F47F43FB60EB
:10280C007B681B68FA689A603B681B68B3F5005FCD
:10281C003ED0B3F5005F00F28780B3F5805F00F027
:10282C008580B3F5805F7FD8702B1AD0702B7BD846
:10283C00602B50D0602B77D8502B3CD0502B73D8BA
:10284C00402B58D0402B6FD8302B64D0302B6BD80A
:10285C00202B60D0202B67D8002B5CD0102B5AD0AB
:10286C0062E07B6818683B6899683B685A683B680B
:10287C00DB6800F05CF97B681B689B68FB60FB689D
:10288C0043F07703FB607B681B68FA689A604EE044
:10289C007B6818683B6899683B685A683B68DB68DA
:1028AC0000F045F97B681B689A687B681B6842F4EA
:1028BC0080429A603BE07B6818683B6859683B68CB
:1028CC00DB681A4600F0BCF87B681B685021184680
:1028DC0000F013F92BE07B6818683B6859683B687B
:1028EC00DB681A4600F0DAF87B681B686021184632
:1028FC0000F003F91BE07B6818683B6859683B687B
:10290C00DB681A4600F09CF87B681B68402118466F
:10291C0000F0F3F80BE07B681A683B681B681946FB
:10292C00104600F0EAF802E000BF00E000BF7B6850
:10293C00012283F83D207B68002283F83C20002391
:10294C0018461037BD4680BD80B483B000AF7860A8
:10295C0000BF0C37BD4680BC704780B483B000AF5D
:10296C00786000BF0C37BD4680BC704780B483B024
:10297C0000AF786000BF0C37BD4680BC704780B498
:10298C0083B000AF786000BF0C37BD4680BC704789
:10299C0080B485B000AF786039607B681B68FB60E1
:1029AC007B68254A934207D07B68B3F1804F03D0F4
:1029BC007B68224A934208D1FB6823F07003FB60CA
:1029CC003B685B68FA681343FB607B681A4A934266
:1029DC0007D07B68B3F1804F03D07B68174A9342D2
:1029EC0008D1FB6823F44073FB603B68DB68FA6832
:1029FC001343FB60FB6823F080023B685B69134365
:102A0C00FB607B68FA681A603B689A687B68DA62DC
:102A1C003B681A687B689A627B68074A934203D1C9
:102A2C003B681A697B681A637B6801225A6100BF94
:102A3C001437BD4680BC7047002C01400004004098
:102A4C0080B487B000AFF860B9607A60FB681B6A2D
:102A5C007B61FB681B6A23F00102FB681A62FB684E
:102A6C009B693B613B6923F0F0033B617B681B0175
:102A7C003A6913433B617B6923F00A037B617A69F2
:102A8C00BB6813437B61FB683A699A61FB687A699E
:102A9C001A6200BF1C37BD4680BC704780B487B03B
:102AAC0000AFF860B9607A60FB681B6A23F0100213
:102ABC00FB681A62FB689B697B61FB681B6A3B6164
:102ACC007B6923F470437B617B681B037A69134336
:102ADC007B613B6923F0A0033B61BB681B013A6936
:102AEC0013433B61FB687A699A61FB683A691A6225
:102AFC0000BF1C37BD4680BC704780B485B000AFAA
:102B0C00786039607B689B68FB60FB6823F070031E
:102B1C00FB603A68FB68134343F00703FB607B6878
:102B2C00FA689A6000BF1437BD4680BC704780B409
:102B3C0087B000AFF860B9607A603B60FB689B6857
:102B4C007B617B6923F47F437B613B681A027B6862
:102B5C001A43BB6813437A6913437B61FB687A6938
:102B6C009A6000BF1C37BD4680BC704780B485B0EE
:102B7C0000AF786039607B6893F83C30012B01D151
:102B8C00022341E07B68012283F83C207B6802220F
:102B9C0083F83D207B681B685B68FB607B681B6867
:102BAC009B68BB60FB6823F07003FB603B681B6891
:102BBC00FA681343FB607B681B68FA685A607B6891
:102BCC001B68144A934209D07B681B68B3F1804F91
:102BDC0004D07B681B68104A93420CD1BB6823F06D
:102BEC008003BB603B685B68BA681343BB607B685F
:102BFC001B68BA689A607B68012283F83D207B6869
:102C0C00002283F83C20002318461437BD4680BCB4
:102C1C00704700BF002C01400004004080B483B01A
:102C2C0000AF786000BF0C37BD4680BC704780B4E5
:102C3C0083B000AF786000BF0C37BD4680BC7047D6
:102C4C0070B500260C4D0D4C641BA410A64209D186
:102C5C0000F022F800260A4D0A4C641BA410A64270
:102C6C0005D170BD55F8043B98470136EEE755F891
:102C7C00043B98470136F2E7DC2C0008DC2C0008FA
:102C8C00DC2C0008E02C000803460244934200D1DF
:102C9C00704703F8011BF9E7F8B500BFF8BC08BC96
:102CAC009E467047F8B500BFF8BC08BC9E467047FE
:102CBC0002030405060708090A0B0C0D0E0F101071
:102CCC0000000000000000000102030406070809D0
:042CDC0031010008BA
:042CE0000D010008DA
:102CE40001010100010101000002000400080000CC
:102CF4000024F400010000000000000000000000B7
:102D04000100000088130000B80B0000D007000089
:0C2D1400010000001000000001000000A1
:0400000508001635A4
:00000001FF
