:020000040800F2
:100000000028002059140008E9130008EF13000825
:10001000F5130008FB13000801140008000000009D
:1000200000000000000000000000000007140008AD
:1000300013140008000000001F1400082B1400080F
:10004000A1140008A1140008A1140008A1140008BC
:10005000A1140008A1140008A1140008A1140008AC
:10006000A1140008A1140008A1140008A11400089C
:10007000A1140008A1140008A1140008A11400088C
:10008000A1140008A1140008A1140008A11400087C
:10009000A1140008A1140008A1140008A11400086C
:1000A000A1140008A1140008A1140008A11400085C
:1000B00039140008A114000800000000A114000871
:1000C000A11400080000000000000000A1140008B6
:1000D00000000000A1140008A114000800000000A6
:1000E000A1140008A1140008A114000800000000D9
:1000F0000000000000000000000000000000000000
:0C01000000000000000000005FF808F1A3
:10010C0010B5054C237833B9044B13B10448AFF345
:10011C0000800123237010BD40000020000000006F
:10012C00CC2A000808B5034B1BB103490348AFF3B5
:10013C00008008BD0000000044000020CC2A00080C
:10014C0080B582B000AF78607B68092B00F28081AB
:10015C0001A252F823F000BF8D010008D501000860
:10016C001D02000865020008AD020008F502000837
:10017C003D03000885030008CD03000815040008A2
:10018C0000220121B54801F071FC00220221B34884
:10019C0001F06CFC00220421B04801F067FC002245
:1001AC000821AE4801F062FC00221021AB4801F09E
:1001BC005DFC00222021A94801F058FC01224021BD
:1001CC00A64801F053FC44E101220121A34801F0AF
:1001DC004DFC00220221A14801F048FC0022042120
:1001EC009E4801F043FC012208219C4801F03EFC92
:1001FC0001221021994801F039FC01222021974855
:10020C0001F034FC01224021944801F02FFC20E144
:10021C0000220121914801F029FC002202218F4883
:10022C0001F024FC012204218C4801F01FFC002267
:10023C0008218A4801F01AFC00221021874801F09D
:10024C0015FC01222021854801F010FC00224021E0
:10025C00824801F00BFCFCE0002201217F4801F0F8
:10026C0005FC002202217D4801F000FC0022042143
:10027C007A4801F0FBFB00220821784801F0F6FBDC
:10028C0001221021754801F0F1FB01222021734855
:10029C0001F0ECFB00224021704801F0E7FBD8E0B4
:1002AC00012201216D4801F0E1FB002202216B4883
:1002BC0001F0DCFB00220421684801F0D7FB01228D
:1002CC000821664801F0D2FB01221021634801F09D
:1002DC00CDFB00222021614801F0C8FB0022402107
:1002EC005E4801F0C3FBB4E0002201215B4801F041
:1002FC00BDFB01220221594801F0B8FB0022042168
:10030C00564801F0B3FB00220821544801F0AEFB23
:10031C0001221021514801F0A9FB002220214F4855
:10032C0001F0A4FB002240214C4801F09FFB90E01F
:10033C0000220121494801F099FB01220221474882
:10034C0001F094FB00220421444801F08FFB0022B1
:10035C000821424801F08AFB002210213F4801F09D
:10036C0085FB002220213D4801F080FB002240212A
:10037C003A4801F07BFB6CE000220121374801F088
:10038C0075FB00220221354801F070FB002204218C
:10039C00324801F06BFB01220821304801F066FB6A
:1003AC00012210212D4801F061FB012220212B4854
:1003BC0001F05CFB01224021284801F057FB48E08A
:1003CC0000220121254801F051FB00220221234883
:1003DC0001F04CFB00220421204801F047FB0022D5
:1003EC0008211E4801F042FB002210211B4801F09D
:1003FC003DFB00222021194801F038FB002240214E
:10040C00164801F033FB24E000220121134801F0CF
:10041C002DFB00220221114801F028FB00220421AF
:10042C000E4801F023FB002208210C4801F01EFBB2
:10043C0001221021094801F019FB00222021074854
:10044C0001F014FB00224021044801F00FFB00E0F6
:10045C0000BF00BF0837BD4680BD00BF000C014087
:10046C0080B483B000AF7860074B1B687A6892FB4E
:10047C00F3F3064A1360064B00221A6000BF0C37D8
:10048C00BD4680BC704700BF2800002074000020CF
:10049C007800002080B400AF094B1B68002B04DDF2
:1004AC00074B1B68013B064A1360054B1B68002B6E
:1004BC0002D1044B01221A6000BFBD4680BC7047BC
:1004CC00740000207800002080B582B000AF786006
:1004DC007B68032B4ED801A252F823F0F9040008D4
:1004EC001B0500083B0500085D0500084FF4007172
:1004FC00234801F0D3FA234A7B6852F8233018467C
:10050C00FFF71EFE40211E4801F0C8FA33E04021DF
:10051C001B4801F0C3FA1B4A7B6852F8233018467B
:10052C00FFF70EFE8021164801F0B8FA23E0802177
:10053C00134801F0B3FA134A7B6852F8233018467B
:10054C00FFF7FEFD4FF480710D4801F0A7FA12E0A1
:10055C004FF480710A4801F0A1FA0A4A7B6852F8FC
:10056C0023301846FFF7ECFD4FF40071044801F0FE
:10057C0095FA00E000BF00BF0837BD4680BD00BF44
:10058C00000801400C00002080B485B000AF1F4B68
:10059C001B681F4A82FB03129210DB17D31AFB60F5
:1005AC001A4B1A681A4B83FB02139910D317C91AEA
:1005BC000B469B000B445B00D31ABB60154B1B68AE
:1005CC00134A82FB03129210DB17D31A7B60114B78
:1005DC001A680F4B83FB02139910D317C91A0B46D9
:1005EC009B000B445B00D31A3B600B4AFB68136007
:1005FC00094ABB685360084A7B689360064A3B68AB
:10060C00D36000BF1437BD4680BC70471C0000206F
:10061C0067666666200000200C00002080B4A7B03E
:10062C0000AF03463960FB710F23C7F8943020E00C
:10063C00FB7903F00103C7F88830FB795B08FB7189
:10064C00D7F894309B0007F198021344D7F8882010
:10065C0043F8502CD7F894309B0007F198021344C0
:10066C00D7F8882043F8902CD7F89430013BC7F882
:10067C009430D7F89430002BDADA0023C7F8903096
:10068C0032E0244B1B68D7F89020D31AC7F88C3073
:10069C00D7F88C30002B10DBD7F890309B0007F18B
:1006AC009802134453F8902CD7F88C309B0007F128
:1006BC0098010B4443F8502C11E0164B1B68C3F106
:1006CC001001D7F890309B0007F19802134453F8AF
:1006DC00902C8B0007F198010B4443F8502CD7F861
:1006EC0090300133C7F89030D7F890300F2BC8DD1D
:1006FC003B689B0007F19802134453F8503C012BC4
:10070C0001D1012300E0002318469C37BD4680BC74
:10071C00704700BF6C00002080B582B000AF7860DD
:10072C007B68072B00F2568301A252F823F000BF1E
:10073C005D0700082B080008F9080008D10900081B
:10074C009F0A00086D0B0008450C0008130D0008EB
:10075C009A4B1B7804211846FFF760FF03461A4694
:10076C000421974801F082F9944B1B780521184617
:10077C00FFF754FF03461A460821914801F076F919
:10078C008E4B1B7806211846FFF748FF03461A4686
:10079C004FF480618A4801F069F9884B1B78072176
:1007AC001846FFF73BFF03461A464FF40061844896
:1007BC0001F05CF9814B1B7808211846FFF72EFFDE
:1007CC0003461A464FF480517D4801F04FF97B4B9C
:1007DC001B7809211846FFF721FF03461A464FF4F0
:1007EC000051774801F042F9744B1B780A211846E6
:1007FC00FFF714FF03461A464FF48041704801F08E
:10080C0035F96E4B1B780B211846FFF707FF034693
:10081C001A464FF400416A4801F028F9DAE2674BB6
:10082C005B7804211846FFF7F9FE03461A460421AB
:10083C00634801F01BF9614B5B7805211846FFF703
:10084C00EDFE03461A4608215D4801F00FF95B4B9B
:10085C005B7806211846FFF7E1FE03461A464FF473
:10086C008061574801F002F9544B5B780721184618
:10087C00FFF7D4FE03461A464FF40061504801F0CE
:10088C00F5F84E4B5B7808211846FFF7C7FE034678
:10089C001A464FF480514A4801F0E8F8474B5B7810
:1008AC0009211846FFF7BAFE03461A464FF40051C9
:1008BC00434801F0DBF8414B5B780A211846FFF7FF
:1008CC00ADFE03461A464FF480413D4801F0CEF888
:1008DC003A4B5B780B211846FFF7A0FE03461A46ED
:1008EC004FF40041364801F0C1F873E2334B9B786A
:1008FC0004211846FFF792FE03461A46042130489D
:10090C0001F0B4F82D4B9B7805211846FFF786FEB5
:10091C0003461A4608212A4801F0A8F8274B9B7871
:10092C0006211846FFF77AFE03461A464FF48061FB
:10093C00234801F09BF8214B9B7807211846FFF7C1
:10094C006DFE03461A464FF400611D4801F08EF807
:10095C001A4B9B7808211846FFF760FE03461A468F
:10096C004FF48051164801F081F8144B9B78092103
:10097C001846FFF753FE03461A464FF40051104831
:10098C0001F074F80D4B9B780A211846FFF746FED0
:10099C0003461A464FF48041094801F067F8074BAB
:1009AC009B780B211846FFF739FE03461A464FF485
:1009BC000041034801F05AF80CE200BF2C00002063
:1009CC00000801409A4BDB7804211846FFF726FEFD
:1009DC0003461A460421974801F048F8944BDB78FB
:1009EC0005211846FFF71AFE03461A4608219148BE
:1009FC0001F03CF88E4BDB7806211846FFF70EFE13
:100A0C0003461A464FF480618A4801F02FF8884B50
:100A1C00DB7807211846FFF701FE03461A464FF410
:100A2C000061844801F022F8814BDB7808211846DC
:100A3C00FFF7F4FD03461A464FF480517D4801F050
:100A4C0015F87B4BDB7809211846FFF7E7FD0346C9
:100A5C001A464FF40051774801F008F8744BDB78D4
:100A6C000A211846FFF7DAFD03461A464FF4804177
:100A7C00704800F0FBFF6E4BDB780B211846FFF73C
:100A8C00CDFD03461A464FF400416A4800F0EEFFD4
:100A9C00A0E1674B1B7904211846FFF7BFFD034605
:100AAC001A460421634800F0E1FF614B1B790521D4
:100ABC001846FFF7B3FD03461A4608215D4800F0BF
:100ACC00D5FF5B4B1B7906211846FFF7A7FD0346A4
:100ADC001A464FF48061574800F0C8FF544B1B79FD
:100AEC0007211846FFF79AFD03461A464FF400619A
:100AFC00504800F0BBFF4E4B1B7908211846FFF7FE
:100B0C008DFD03461A464FF480514A4800F0AEFF63
:100B1C00474B1B7909211846FFF780FD03461A46FF
:100B2C004FF40051434800F0A1FF414B1B790A21BF
:100B3C001846FFF773FD03461A464FF480413D48B3
:100B4C0000F094FF3A4B1B790B211846FFF766FD1A
:100B5C0003461A464FF40041364800F087FF39E14E
:100B6C00334B5B7904211846FFF758FD03461A46B0
:100B7C000421304800F07AFF2D4B5B790521184693
:100B8C00FFF74CFD03461A4608212A4800F06EFF79
:100B9C00274B5B7906211846FFF740FD03461A46A2
:100BAC004FF48061234800F061FF214B5B790721F2
:100BBC001846FFF733FD03461A464FF400611D48F3
:100BCC0000F054FF1A4B5B7908211846FFF726FDFD
:100BDC0003461A464FF48051164800F047FF144B59
:100BEC005B7909211846FFF719FD03461A464FF4A5
:100BFC000051104800F03AFF0D4B5B790A21184662
:100C0C00FFF70CFD03461A464FF48041094800F0EB
:100C1C002DFF074B5B790B211846FFF7FFFC0346B2
:100C2C001A464FF40041034800F020FFD2E000BF09
:100C3C002C00002000080140684B9B7904211846C9
:100C4C00FFF7ECFC03461A460421654800F00EFF42
:100C5C00624B9B7905211846FFF7E0FC03461A46C8
:100C6C0008215F4800F002FF5C4B9B790621184677
:100C7C00FFF7D4FC03461A464FF48061584800F045
:100C8C00F5FE564B9B7907211846FFF7C7FC034628
:100C9C001A464FF40061524800F0E8FE4F4B9B7926
:100CAC0008211846FFF7BAFC03461A464FF4805148
:100CBC004B4800F0DBFE494B9B7909211846FFF7A6
:100CCC00ADFC03461A464FF40051454800F0CEFEE9
:100CDC00424B9B790A211846FFF7A0FC03461A46A3
:100CEC004FF480413E4800F0C1FE3C4B9B790B21F8
:100CFC001846FFF793FC03461A464FF40041384858
:100D0C0000F0B4FE66E0354BDB7904211846FFF7A2
:100D1C0085FC03461A460421314800F0A7FE2F4BF0
:100D2C00DB7905211846FFF779FC03461A460821A2
:100D3C002B4800F09BFE294BDB7906211846FFF768
:100D4C006DFC03461A464FF48061254800F08EFE78
:100D5C00224BDB7907211846FFF760FC03461A4645
:100D6C004FF400611E4800F081FE1C4BDB7908211A
:100D7C001846FFF753FC03461A464FF480511848A7
:100D8C0000F074FE154BDB7909211846FFF746FC81
:100D9C0003461A464FF40051114800F067FE0F4B02
:100DAC00DB790A211846FFF739FC03461A464FF443
:100DBC0080410B4800F05AFE084BDB790B2118469A
:100DCC00FFF72CFC03461A464FF40041044800F090
:100DDC004DFE00BF00BF0837BD4680BD2C00002073
:100DEC000008014080B582B000AF7860FFF752FB7D
:100DFC00314B1B68002B16DC2F4B32221A602F4B09
:100E0C001B6801332D4A13602C4B1B685A4203F0AC
:100E1C00030302F0030258BF5342284A1360284BC5
:100E2C0001221A6004E0244B1B68013B224A136028
:100E3C00244B1B68002B06DC224B64221A60224BCD
:100E4C0001221A6004E01F4B1B68013B1D4A136012
:100E5C001E4B1B68002B26DC1C4B0A221A601C4BF9
:100E6C001B6801331A4A1360194B1B68082B16D1E7
:100E7C00184B1B6801335A4203F00F0302F00F02A8
:100E8C0058BF5342134A1360114B1B685A4203F06C
:100E9C00070302F0070258BF53420D4A13600E4B72
:100EAC0001221A6004E0094B1B68013B074A1360DE
:100EBC0000BF0837BD4680BD000000207000002038
:100ECC005C000020040000206000002008000020CE
:100EDC00680000206C0000206400002080B500AF8A
:100EEC0000F0DAFA00F034F900F0BAF900F06CF91D
:100EFC00012201218A4800F0B9FD00220221884814
:100F0C0000F0B4FD00220421854800F0AFFD012261
:100F1C000821834800F0AAFD01221021804800F02E
:100F2C00A5FD012220217E4800F0A0FD01224021D8
:100F3C007B4800F09BFD002240217A4800F096FD92
:100F4C0001228021774800F091FD01224FF480713D
:100F5C00744800F08BFD01224FF40071714800F0D1
:100F6C0085FD002210216F4800F080FD6E4801F0D5
:100F7C00E7F94FF47A70FFF773FA6C4B1B68012B8F
:100F8C0029D16B4B1B680133694A1360684B1B6892
:100F9C003B2B07DD664B00221A60664B1B68013346
:100FAC00644A1360634B1B683B2B07DD614B0022CB
:100FBC001A60614B1B6801335F4A13605E4B1B6800
:100FCC00172B02DD5C4B00221A60FFF7DDFA4FF4A1
:100FDC007A70FFF745FA594B1B68012B07D1584B18
:100FEC001B681846FFF770FA544B00221A60554BD9
:100FFC001B68012B06D110214A4800F04FFD514BC4
:10100C0000221A60504B1B68012BB6D14F4B1B684A
:10101C00072B7BD801A252F823F000BF491000081F
:10102C00631000087D10000897100008B11000082C
:10103C00CB100008E5100008FF10000800224FF448
:10104C000041374800F012FD01224FF48071344802
:10105C0000F00CFD5BE000224FF48071304800F092
:10106C0005FD01224FF400712D4800F0FFFC4EE00D
:10107C0000224FF400712A4800F0F8FC01224FF4D2
:10108C008061274800F0F2FC41E000224FF48061BF
:10109C00234800F0EBFC01224FF40061204800F0E3
:1010AC00E5FC34E000224FF400611D4800F0DEFC4A
:1010BC0001224FF480511A4800F0D8FC27E000229E
:1010CC004FF48051164800F0D1FC01224FF400512E
:1010DC00134800F0CBFC1AE000224FF400511048EA
:1010EC0000F0C4FC01224FF480410D4800F0BEFC1E
:1010FC000DE000224FF48041094800F0B7FC0122BA
:10110C004FF40041064800F0B1FC00E000BF0F4B6B
:10111C001B681846FFF700FB0B4B00221A602CE7EC
:10112C00000C0140000801407C00002078000020E9
:10113C0024000020200000201C0000205C00002067
:10114C007000002060000020640000206800002077
:10115C0080B590B000AF07F1180328220021184683
:10116C0001F0A6FC3B1D00221A605A609A60DA60FE
:10117C001A610223BB610123BB621023FB620023B3
:10118C007B6307F11803184600F0A2FC0346002B02
:10119C0001D000F0C7F80F237B600023BB60002355
:1011AC00FB6000233B6100237B613B1D0021184643
:1011BC0000F00EFF0346002B01D000F0B3F800BF87
:1011CC004037BD4680BD000080B586B000AF07F14A
:1011DC00080300221A605A609A60DA603B460022CB
:1011EC001A605A601D4B4FF080421A601B4B41F63F
:1011FC003F725A60194B00229A60184B0922DA6030
:10120C00164B00221A61154B00229A61134801F00B
:10121C0047F80346002B01D000F084F84FF48053BC
:10122C00BB6007F1080319460C4801F0DDF90346D1
:10123C00002B01D000F076F800233B6000237B608C
:10124C003B461946054801F0A5FB0346002B01D08F
:10125C0000F068F800BF1837BD4680BD7C00002048
:10126C0080B588B000AF07F1100300221A605A60F5
:10127C009A60DA60284B9B69274A43F020039361FC
:10128C00254B9B6903F02003FB60FB68224B9B6999
:10129C00214A43F0040393611F4B9B6903F0040341
:1012AC00BB60BB681C4B9B691B4A43F008039361F2
:1012BC00194B9B6903F008037B607B6800224FF697
:1012CC00FC71164800F0D2FB00224FF67F711448D7
:1012DC0000F0CCFB4FF6FC733B6101237B610023D8
:1012EC00BB610223FB6107F1100319460B4800F0A8
:1012FC0043FA4FF67F733B6101237B610023BB6193
:10130C000223FB6107F110031946054800F034FA7B
:10131C0000BF2037BD4680BD0010024000080140D0
:10132C00000C014080B400AF72B600BFFEE70000B5
:10133C0080B485B000AF154B9B69144A43F0010390
:10134C009361124B9B6903F00103BB60BB680F4BAD
:10135C00DB690E4A43F08053D3610C4BDB6903F01D
:10136C0080537B607B680A4B5B68FB60FB6823F0F7
:10137C00E063FB60FB6843F08063FB60044AFB683E
:10138C00536000BF1437BD4680BC7047001002404C
:10139C000000014080B584B000AF78607B681B68AA
:1013AC00B3F1804F13D10C4BDB690B4A43F00103B3
:1013BC00D361094BDB6903F00103FB60FB6800227E
:1013CC0000211C2000F0A1F91C2000F0BAF900BF8C
:1013DC001037BD4680BD00BF0010024080B400AF86
:1013EC00FEE780B400AFFEE780B400AFFEE780B448
:1013FC0000AFFEE780B400AFFEE780B400AF00BFE3
:10140C00BD4680BC704780B400AF00BFBD4680BCF9
:10141C00704780B400AF00BFBD4680BC704780B53C
:10142C0000AF00F07FF800BF80BD000080B500AFBA
:10143C00024800F0D1FF00BF80BD00BF7C0000203F
:10144C0080B400AF00BFBD4680BC70470C480D494E
:10145C000D4A002302E0D458C4500433C4188C4203
:10146C00F9D30A4A0A4C002301E013600432A24269
:10147C00FBD3FFF7E5FF01F0F7FAFFF72FFD7047FD
:10148C0000000020400000200C2B00084000002031
:10149C00C8000020FEE7000080B500AF084B1B68B9
:1014AC00074A43F010031360032000F023F90F20C8
:1014BC0000F008F8FFF73CFF0023184680BD00BF82
:1014CC000020024080B582B000AF7860124B1A68E1
:1014DC00124B1B7819464FF47A73B3FBF1F3B2FB42
:1014EC00F3F3184600F03BF90346002B01D001231F
:1014FC000EE07B680F2B0AD8002279684FF0FF3082
:10150C0000F003F9064A7B681360002300E0012316
:10151C0018460837BD4680BD340000203C00002032
:10152C003800002080B400AF054B1B781A46054BE1
:10153C001B681344034A136000BFBD4680BC704750
:10154C003C000020C400002080B400AF024B1B689C
:10155C001846BD4680BC7047C400002080B485B0DE
:10156C0000AF78607B6803F00703FB600C4BDB6813
:10157C00BB60BA684FF6FF031340BB60FB681A02EE
:10158C00BB68134343F0BF6343F40033BB60044AAE
:10159C00BB68D36000BF1437BD4680BC704700BF2A
:1015AC0000ED00E080B400AF044BDB681B0A03F0D5
:1015BC0007031846BD4680BC704700BF00ED00E035
:1015CC0080B483B000AF0346FB7197F90730002B52
:1015DC000BDBFB7903F01F02064997F907305B0917
:1015EC00012000FA02F241F8232000BF0C37BD465F
:1015FC0080BC704700E100E080B483B000AF0346CC
:10160C003960FB7197F90730002B0ADB3B68DAB2C3
:10161C000C4997F907301201D2B20B4483F800231E
:10162C000AE03B68DAB20849FB7903F00F03043B8C
:10163C001201D2B20B441A7600BF0C37BD4680BCE7
:10164C00704700BF00E100E000ED00E080B489B01D
:10165C0000AFF860B9607A60FB6803F00703FB61C8
:10166C00FB69C3F10703042B28BF0423BB61FB698F
:10167C000433062B02D9FB69033B00E000237B619A
:10168C004FF0FF32BB6902FA03F3DA43BB681A402E
:10169C007B699A404FF0FF317B6901FA03F3D94320
:1016AC007B680B40134318462437BD4680BC7047FB
:1016BC0080B582B000AF78607B68013BB3F1807F6E
:1016CC0001D301230FE00A4A7B68013B53600F21D1
:1016DC004FF0FF30FFF790FF054B00229A60044B50
:1016EC0007221A60002318460837BD4680BD00BF8C
:1016FC0010E000E080B582B000AF78607868FFF74A
:10170C002DFF00BF0837BD4680BD80B586B000AF49
:10171C000346B9607A60FB7300237B61FFF742FFDD
:10172C0078617A68B9687869FFF790FF024697F993
:10173C000F3011461846FFF75FFF00BF1837BD4644
:10174C0080BD80B582B000AF0346FB7197F90730BE
:10175C001846FFF735FF00BF0837BD4680BD80B582
:10176C0082B000AF78607868FFF7A2FF0346184696
:10177C000837BD4680BD000080B48BB000AF7860E8
:10178C00396000237B6200233B6248E101227B6AC3
:10179C0002FA03F3FB613B681B68FA691340BB61F7
:1017AC00BA69FB699A4240F037813B685B68A34A8F
:1017BC0093425ED0A14A934275D8A14A934258D025
:1017CC009F4A93426FD89F4A934252D09D4A93426C
:1017DC0069D89D4A93424CD09B4A934263D89B4A0A
:1017EC00934246D0994A93425DD8122B2AD8122B99
:1017FC0059D801A252F823F07F1800085918000894
:10180C006B180008AD180008B3180008B3180008CE
:10181C00B3180008B3180008B3180008B318000870
:10182C00B3180008B3180008B3180008B318000860
:10183C00B3180008B3180008B318000861180008A2
:10184C0075180008824A934213D02CE03B68DB6881
:10185C003B6229E03B68DB6804333B6224E03B6875
:10186C00DB6808333B621FE03B68DB680C333B6290
:10187C001AE03B689B68002B02D104233B6213E007
:10188C003B689B68012B05D108233B627B68FA6996
:10189C001A6109E008233B627B68FA695A6103E02C
:1018AC0000233B6200E000BFBB69FF2B01D87B68C3
:1018BC0001E07B6804337B61BB69FF2B02D87B6A38
:1018CC009B0002E07B6A083B9B003B617B691A68CA
:1018DC000F213B6901FA03F3DB431A40396A3B6978
:1018EC0001FA03F31A437B691A603B685B6803F0E7
:1018FC008053002B00F09080564B9B69554A43F067
:10190C0001039361534B9B6903F00103BB60BB68FC
:10191C00514A7B6A9B08023352F82330FB607B6A86
:10192C0003F003039B000F2202FA03F3DB43FA6874
:10193C001340FB607B68494A93420DD07B68484A50
:10194C00934207D07B68474A934201D1022304E0BB
:10195C00032302E0012300E000237A6A02F0030271
:10196C0092009340FA681343FB603B497B6A9B08E7
:10197C000233FA6841F823203B685B6803F4803338
:10198C00002B06D0384B1A683749BB6913430B60E0
:10199C0006E0354B1A68BB69DB43334913400B60D7
:1019AC003B685B6803F40033002B06D02E4B5A685F
:1019BC002D49BB6913434B6006E02B4B5A68BB693E
:1019CC00DB43294913404B603B685B6803F480138D
:1019DC00002B06D0244B9A682349BB6913438B60B8
:1019EC0006E0214B9A68BB69DB431F4913408B60AF
:1019FC003B685B6803F40013002B06D01A4BDA68C3
:101A0C001949BB691343CB6006E0174BDA68BB6915
:101A1C00DB4315491340CB607B6A01337B623B6827
:101A2C001A687B6A22FA03F3002B7FF4AFAE00BF77
:101A3C0000BF2C37BD4680BC704700BF0000321081
:101A4C0000003110000022100000211000001210C4
:101A5C00000011100010024000000140000801407D
:101A6C00000C0140001001400004014080B483B020
:101A7C0000AF78600B467B8013467B707B78002B25
:101A8C0003D07A887B681A6103E07B881A047B6830
:101A9C001A6100BF0C37BD4680BC704780B485B05E
:101AAC0000AF78600B467B807B68DB68FB607A88D4
:101ABC00FB6813401A04FB68D9437B880B401A431C
:101ACC007B681A6100BF1437BD4680BC70470000AC
:101ADC0080B586B000AF78607B68002B01D1012304
:101AEC006CE27B681B6803F00103002B00F087801D
:101AFC00924B5B6803F00C03042B0CD08F4B5B6890
:101B0C0003F00C03082B12D18C4B5B6803F480336D
:101B1C00B3F5803F0BD1894B1B6803F40033002BCA
:101B2C006CD07B685B68002B68D1012346E27B6834
:101B3C005B68B3F5803F06D1804B1B687F4A43F44A
:101B4C00803313602EE07B685B68002B0CD17B4BE1
:101B5C001B687A4A23F480331360784B1B68774AEE
:101B6C0023F4802313601DE07B685B68B3F5A02F22
:101B7C000CD1724B1B68714A43F4802313606F4B7A
:101B8C001B686E4A43F4803313600BE06B4B1B688D
:101B9C006A4A23F480331360684B1B68674A23F44A
:101BAC00802313607B685B68002B13D0FFF7CCFCA1
:101BBC00386108E0FFF7C8FC02463B69D31A642B76
:101BCC0001D90323FAE15D4B1B6803F40033002BAE
:101BDC00F0D014E0FFF7B8FC386108E0FFF7B4FC74
:101BEC0002463B69D31A642B01D90323E6E1534B1C
:101BFC001B6803F40033002BF0D100E000BF7B68BE
:101C0C001B6803F00203002B63D04C4B5B6803F0A2
:101C1C000C03002B0BD0494B5B6803F00C03082B17
:101C2C001CD1464B5B6803F48033002B16D1434B1D
:101C3C001B6803F00203002B05D07B681B69012B8A
:101C4C0001D00123BAE13D4B1B6823F0F8027B68FD
:101C5C005B69DB00394913430B603AE07B681B6915
:101C6C00002B20D0364B01221A60FFF76DFC386137
:101C7C0008E0FFF769FC02463B69D31A022B01D935
:101C8C0003239BE12D4B1B6803F00203002BF0D0C8
:101C9C002A4B1B6823F0F8027B685B69DB00274941
:101CAC0013430B6015E0264B00221A60FFF74CFC27
:101CBC00386108E0FFF748FC02463B69D31A022B57
:101CCC0001D903237AE11D4B1B6803F00203002B9F
:101CDC00F0D17B681B6803F00803002B3AD07B68BB
:101CEC009B69002B19D0174B01221A60FFF72CFCB3
:101CFC00386108E0FFF728FC02463B69D31A022B37
:101D0C0001D903235AE10D4B5B6A03F00203002B4C
:101D1C00F0D0012000F0A6FA1CE00A4B00221A6059
:101D2C00FFF712FC38610FE0FFF70EFC02463B692F
:101D3C00D31A022B08D9032340E100BF0010024044
:101D4C0000004242800442429E4B5B6A03F0020355
:101D5C00002BE9D17B681B6803F00403002B00F017
:101D6C00A6800023FB75974BDB6903F08053002B97
:101D7C000DD1944BDB69934A43F08053D361914B63
:101D8C00DB6903F08053BB60BB680123FB758E4B92
:101D9C001B6803F48073002B18D18B4B1B688A4A89
:101DAC0043F480731360FFF7CFFB386108E0FFF753
:101DBC00CBFB02463B69D31A642B01D90323FDE00C
:101DCC00814B1B6803F48073002BF0D07B68DB68BD
:101DDC00012B06D17B4B1B6A7A4A43F00103136239
:101DEC002DE07B68DB68002B0CD1764B1B6A754AA7
:101DFC0023F001031362734B1B6A724A23F0040332
:101E0C0013621CE07B68DB68052B0CD16D4B1B6AE5
:101E1C006C4A43F0040313626A4B1B6A694A43F031
:101E2C00010313620BE0674B1B6A664A23F0010344
:101E3C001362644B1B6A634A23F0040313627B68CE
:101E4C00DB68002B15D0FFF77FFB38610AE0FFF74A
:101E5C007BFB02463B69D31A41F28832934201D98B
:101E6C000323ABE0574B1B6A03F00203002BEED0AD
:101E7C0014E0FFF769FB38610AE0FFF765FB0246E7
:101E8C003B69D31A41F28832934201D9032395E07E
:101E9C004C4B1B6A03F00203002BEED1FB7D012B94
:101EAC0005D1484BDB69474A23F08053D3617B68EB
:101EBC00DB69002B00F08180424B5B6803F00C0364
:101ECC00082B61D07B68DB69022B46D13F4B00228B
:101EDC001A60FFF739FB386108E0FFF735FB024663
:101EEC003B69D31A022B01D9032367E0354B1B68DE
:101EFC0003F00073002BF0D17B681B6AB3F5803FB5
:101F0C0008D1304B5B6823F400327B689B682D4909
:101F1C0013434B602B4B5B6823F474127B68196A78
:101F2C007B685B6A0B43274913434B60274B0122A9
:101F3C001A60FFF709FB386108E0FFF705FB024662
:101F4C003B69D31A022B01D9032337E01D4B1B68C5
:101F5C0003F00073002BF0D02FE01C4B00221A6012
:101F6C00FFF7F2FA386108E0FFF7EEFA02463B6938
:101F7C00D31A022B01D9032320E0124B1B6803F068
:101F8C000073002BF0D118E07B68DB69012B01D1C9
:101F9C00012313E00B4B5B68FB60FB6803F480329E
:101FAC007B681B6A9A4206D1FB6803F470127B684B
:101FBC005B6A9A4201D0012300E0002318461837CF
:101FCC00BD4680BD001002400070004060004242DF
:101FDC0080B584B000AF786039607B68002B01D18C
:101FEC000123D0E06A4B1B6803F007033A689A425E
:101FFC0010D9674B1B6823F0070265493B681343F4
:10200C000B60634B1B6803F007033A689A4201D0DC
:10201C000123B8E07B681B6803F00203002B20D07F
:10202C007B681B6803F00403002B05D0594B5B68DD
:10203C00584A43F4E06353607B681B6803F0080361
:10204C00002B05D0534B5B68524A43F460535360EA
:10205C00504B5B6823F0F0027B689B684D4913433F
:10206C004B607B681B6803F00103002B40D07B683E
:10207C005B68012B07D1474B1B6803F40033002B23
:10208C0015D101237FE07B685B68022B07D1414BA4
:10209C001B6803F00073002B09D1012373E03D4B47
:1020AC001B6803F00203002B01D101236BE0394BB9
:1020BC005B6823F003027B685B68364913434B6013
:1020CC00FFF742FAF8600AE0FFF73EFA0246FB68B7
:1020DC00D31A41F28832934201D9032353E02D4B9A
:1020EC005B6803F00C027B685B689B009A42EBD147
:1020FC00274B1B6803F007033A689A4210D2244B13
:10210C001B6823F0070222493B6813430B60204BEA
:10211C001B6803F007033A689A4201D0012332E0AE
:10212C007B681B6803F00403002B08D0194B5B6819
:10213C0023F4E0627B68DB68164913434B607B68D1
:10214C001B6803F00803002B09D0124B5B6823F4C7
:10215C0060527B681B69DB000E4913434B6000F037
:10216C0021F802460B4B5B681B0903F00F030A496D
:10217C00CB5C22FA03F3094A1360094B1B6818461F
:10218C00FFF7A0F9002318461037BD4680BD00BFED
:10219C000020024000100240F42A00083400002005
:1021AC003800002090B48AB000AF2A4B3C1D0FCBF6
:1021BC0084E80F0040F201233B800023FB610023E5
:1021CC00BB6100237B6200237B6100233B62224BBB
:1021DC005B68FB61FB6903F00C03042B02D0082B3A
:1021EC0003D02DE01D4B3B622DE0FB699B0C03F0F3
:1021FC000F0307F12802134413F8243C7B61FB699D
:10220C0003F48033002B13D0134B5B685B0C03F08F
:10221C00010307F12802134413F8283CBB617B69C6
:10222C000E4A02FB03F2BB69B2FBF3F37B6204E0E0
:10223C007B690B4A02FB03F37B627B6A3B6202E025
:10224C00064B3B6200BF3B6A18462837BD4690BC24
:10225C00704700BFE42A00080010024000127A0008
:10226C0000093D0080B485B000AF78600A4B1B6854
:10227C000A4AA2FB03235B0A7A6802FB03F3FB60A6
:10228C0000BFFB685A1EFA60002BF9D100BF00BFDB
:10229C001437BD4680BC704734000020D34D62100B
:1022AC0080B582B000AF78607B68002B01D1012330
:1022BC0041E07B6893F83D30DBB2002B06D17B68A4
:1022CC00002283F83C207868FFF764F87B680222D0
:1022DC0083F83D207B681A687B68043319461046E6
:1022EC0000F06AFA7B68012283F846207B680122A1
:1022FC0083F83E207B68012283F83F207B68012213
:10230C0083F840207B68012283F841207B680122FE
:10231C0083F842207B68012283F843207B680122EA
:10232C0083F844207B68012283F845207B680122D6
:10233C0083F83D20002318460837BD4680BD0000B9
:10234C0080B485B000AF78607B6893F83D30DBB229
:10235C00012B01D0012335E07B68022283F83D205C
:10236C007B681B68DA687B681B6842F00102DA60E4
:10237C007B681B68164A934209D07B681B68B3F1D3
:10238C00804F04D07B681B68124A934211D17B6842
:10239C001B689B6803F00703FB60FB68062B10D0DF
:1023AC007B681B681A687B681B6842F001021A6024
:1023BC0007E07B681B681A687B681B6842F00102A7
:1023CC001A60002318461437BD4680BC704700BF06
:1023DC00002C01400004004080B582B000AF786052
:1023EC007B681B681B6903F00203022B22D17B68FC
:1023FC001B68DB6803F00203022B1BD17B681B6894
:10240C006FF002021A617B6801221A777B681B68E5
:10241C009B6903F00303002B03D0786800F0B1F93B
:10242C0005E0786800F0A4F9786800F0B3F97B68EF
:10243C0000221A777B681B681B6903F00403042BCA
:10244C0022D17B681B68DB6803F00403042B1BD1CF
:10245C007B681B686FF004021A617B6802221A7792
:10246C007B681B689B6903F44073002B03D078686E
:10247C0000F087F905E0786800F07AF9786800F0E8
:10248C0089F97B6800221A777B681B681B6903F04B
:10249C000803082B22D17B681B68DB6803F0080358
:1024AC00082B1BD17B681B686FF008021A617B68D4
:1024BC0004221A777B681B68DB6903F00303002B8B
:1024CC0003D0786800F05DF905E0786800F050F909
:1024DC00786800F05FF97B6800221A777B681B68CC
:1024EC001B6903F01003102B22D17B681B68DB687F
:1024FC0003F01003102B1BD17B681B686FF01002CC
:10250C001A617B6808221A777B681B68DB6903F405
:10251C004073002B03D0786800F033F905E078683D
:10252C0000F026F9786800F035F97B6800221A77FC
:10253C007B681B681B6903F00103012B0ED17B68C0
:10254C001B68DB6803F00103012B07D17B681B6858
:10255C006FF001021A617868FEF744FC7B681B6817
:10256C001B6903F08003802B0ED17B681B68DB6832
:10257C0003F08003802B07D17B681B686FF080020F
:10258C001A61786800F067FA7B681B681B6903F0B6
:10259C004003402B0ED17B681B68DB6803F04003C3
:1025AC00402B07D17B681B686FF040021A6178687A
:1025BC0000F0F9F87B681B681B6903F02003202BE3
:1025CC000ED17B681B68DB6803F02003202B07D13E
:1025DC007B681B686FF020021A61786800F032FA91
:1025EC0000BF0837BD4680BD80B584B000AF7860B1
:1025FC0039607B6893F83C30012B01D10223B3E0A6
:10260C007B68012283F83C207B68022283F83D2002
:10261C007B681B689B68FB60FB6823F07703FB609F
:10262C00FB6823F47F43FB607B681B68FA689A6045
:10263C003B681B68B3F5005F3ED0B3F5005F00F25A
:10264C008780B3F5805F00F08580B3F5805F7FD81D
:10265C00702B1AD0702B7BD8602B50D0602B77D876
:10266C00502B3CD0502B73D8402B58D0402B6FD8CC
:10267C00302B64D0302B6BD8202B60D0202B67D81C
:10268C00002B5CD0102B5AD062E07B6818683B683A
:10269C0099683B685A683B68DB6800F05CF97B68BA
:1026AC001B689B68FB60FB6843F07703FB607B68EF
:1026BC001B68FA689A604EE07B6818683B689968FA
:1026CC003B685A683B68DB6800F045F97B681B681F
:1026DC009A687B681B6842F480429A603BE07B6896
:1026EC0018683B6859683B68DB681A4600F0BCF810
:1026FC007B681B685021184600F013F92BE07B68AF
:10270C0018683B6859683B68DB681A4600F0DAF8D1
:10271C007B681B686021184600F003F91BE07B689E
:10272C0018683B6859683B68DB681A4600F09CF8EF
:10273C007B681B684021184600F0F3F80BE07B68BF
:10274C001A683B681B681946104600F0EAF802E06C
:10275C0000BF00E000BF7B68012283F83D207B684E
:10276C00002283F83C20002318461037BD4680BD5C
:10277C0080B483B000AF786000BF0C37BD4680BC1E
:10278C00704780B483B000AF786000BF0C37BD4693
:10279C0080BC704780B483B000AF786000BF0C374A
:1027AC00BD4680BC704780B483B000AF786000BF7A
:1027BC000C37BD4680BC704780B485B000AF7860E4
:1027CC0039607B681B68FB607B68254A934207D0A5
:1027DC007B68B3F1804F03D07B68224A934208D1C7
:1027EC00FB6823F07003FB603B685B68FA6813437B
:1027FC00FB607B681A4A934207D07B68B3F1804F29
:10280C0003D07B68174A934208D1FB6823F44073CA
:10281C00FB603B68DB68FA681343FB60FB6823F0E2
:10282C0080023B685B691343FB607B68FA681A6043
:10283C003B689A687B68DA623B681A687B689A62C4
:10284C007B68074A934203D13B681A697B681A6319
:10285C007B6801225A6100BF1437BD4680BC7047AB
:10286C00002C01400004004080B487B000AFF86039
:10287C00B9607A60FB681B6A7B61FB681B6A23F09A
:10288C000102FB681A62FB689B693B613B6923F0A0
:10289C00F0033B617B681B013A6913433B617B6925
:1028AC0023F00A037B617A69BB6813437B61FB6885
:1028BC003A699A61FB687A691A6200BF1C37BD4697
:1028CC0080BC704780B487B000AFF860B9607A60A4
:1028DC00FB681B6A23F01002FB681A62FB689B6999
:1028EC007B61FB681B6A3B617B6923F470437B61F2
:1028FC007B681B037A6913437B613B6923F0A0035C
:10290C003B61BB681B013A6913433B61FB687A6905
:10291C009A61FB683A691A6200BF1C37BD4680BCDD
:10292C00704780B485B000AF786039607B689B6875
:10293C00FB60FB6823F07003FB603A68FB68134391
:10294C0043F00703FB607B68FA689A6000BF14379A
:10295C00BD4680BC704780B487B000AFF860B960EA
:10296C007A603B60FB689B687B617B6923F47F43E7
:10297C007B613B681A027B681A43BB6813437A6914
:10298C0013437B61FB687A699A6000BF1C37BD46B4
:10299C0080BC704780B485B000AF786039607B68CC
:1029AC0093F83C30012B01D1022341E07B680122DA
:1029BC0083F83C207B68022283F83D207B681B68EF
:1029CC005B68FB607B681B689B68BB60FB6823F0E3
:1029DC007003FB603B681B68FA681343FB607B6801
:1029EC001B68FA685A607B681B68144A934209D0CA
:1029FC007B681B68B3F1804F04D07B681B68104A5E
:102A0C0093420CD1BB6823F08003BB603B685B68CE
:102A1C00BA681343BB607B681B68BA689A607B68B2
:102A2C00012283F83D207B68002283F83C200023A0
:102A3C0018461437BD4680BC704700BF002C0140BF
:102A4C000004004080B483B000AF786000BF0C3746
:102A5C00BD4680BC704780B483B000AF786000BFC7
:102A6C000C37BD4680BC704770B500260C4D0D4C24
:102A7C00641BA410A64209D100F022F800260A4DCE
:102A8C000A4C641BA410A64205D170BD55F8043B3A
:102A9C0098470136EEE755F8043B98470136F2E7C4
:102AAC00042B0008042B0008042B0008082B00083A
:102ABC0003460244934200D1704703F8011BF9E727
:102ACC00F8B500BFF8BC08BC9E467047F8B500BF0F
:082ADC00F8BC08BC9E467047DF
:102AE40002030405060708090A0B0C0D0E0F10104B
:102AF40000000000000000000102030406070809AA
:042B04003101000893
:042B08000D010008B3
:102B0C0032000000640000000A0000000100000018
:102B1C000200000003000000040000000F00000091
:102B2C0008000000320000000A0000001824424295
:102B3C007E4242420024F40010000000010000001C
:040000050800145982
:00000001FF
